:04000000FEEF7FF0A0
:101000000000946A550E8B6E150E026E4B0E016E2B
:10101000BE0EE82EFED7012EFCD7022EFAD700D046
:101020008B828B86150E026E4B0E016EBE0EE82E65
:10103000FED7012EFCD7022EFAD700D08B928B96CA
:10104000150E026E4B0E016EBE0EE82EFED7012E5F
:10105000FCD7022EFAD700D0020E8B1A080E8B1A7C
:0E10600030EF08F0FEEF7FF0000101EF08F026
:04FFFC0034EF08F0E6
:020000040030CA
:0E000000FF02091EFF8181FF0FC00FE00F40BD
:00000001FF
