:04000000FEEF7FF0A0
:1010000000006DEC08F0AA0E64EC08F0150E036EFB
:101010004B0E026EBE0EE82EFED7022EFCD7032E1C
:10102000FAD700D06BEC08F08B6A060E036E130E35
:10103000026EAE0EE82EFED7022EFCD7032EFAD794
:101040008B808B8E060E036E130E026EAE0EE82E94
:10105000FED7022EFCD7032EFAD78B828B8C060E7E
:10106000036E130E026EAE0EE82EFED7022EFCD7D4
:10107000032EFAD78B848B8A060E036E130E026E34
:10108000AE0EE82EFED7022EFCD7032EFAD78B86A3
:101090008B88060E036E130E026EAE0EE82EFED780
:1010A000022EFCD7032EFAD78B6A060E036E130EA0
:1010B000026EAE0EE82EFED7022EFCD7032EFAD714
:1010C00014EF08F0FEEF7FF0016E01C08BFF1200FD
:0E10D000000101EF08F08B8C1200946A1200F0
:04FFFC0068EF08F0B2
:020000040030CA
:0E000000FF02091EFF8181FF0FC00FE00F40BD
:00000001FF
