:04000000FEEF7FF0A0
:101000000000946A8B6A060E026E130E016EAE0E1D
:10101000E82EFED7012EFCD7022EFAD7810E8B12B6
:10102000060E026E130E016EAE0EE82EFED7012ED6
:10103000FCD7022EFAD7420E8B12060E026E130E4A
:10104000016EAE0EE82EFED7012EFCD7022EFAD787
:10105000240E8B12060E026E130E016EAE0EE82EDB
:10106000FED7012EFCD7022EFAD7180E8B12060ED1
:10107000026E130E016EAE0EE82EFED7012EFCD7C7
:10108000022EFAD702EF08F0FEEF7FF0000101EF29
:0210900008F066
:04FFFC0046EF08F0D4
:020000040030CA
:0E000000FF02091EFF8181FF0FC00FE00F40BD
:00000001FF
